:100000000C0400104D030000B1030000B103000018
:10001000B1030000B1030000B103000000000000C4
:10002000000000000000000000000000B10300001C
:10003000B103000000000000B1030000B1030000A4
:10004000B1030000B1030000B1030000B1030000E0
:10005000B1030000B1030000B1030000B1030000D0
:10006000B1030000B1030000B1030000B1030000C0
:10007000B1030000B1030000B1030000B1030000B0
:10008000B1030000B1030000B1030000B1030000A0
:10009000B1030000B1030000B1030000B103000090
:1000A000B1030000B1030000B1030000B103000080
:1000B000B1030000B1030000B1030000B103000070
:1000C00080B500AF00F078F9FEE7C04680B58CB08F
:1000D00000AF0E4BFB623B1C183330221A603B1CF6
:1000E000183300225A60FB6A1B68DB685B68391CA6
:1000F00018313A1D081C111C98473B1D1B68002B2A
:1001000000D0FEE7C046BD460CB080BDF81FFF1F03
:1001100080B582B000AF2A4B2A4A1A602A4B0122CE
:100120001A64294B01225A64274B00225A64264B39
:1001300001225A64C046244B5A6C01231340FAD062
:10014000214B9B687B607B685B0A5B027B601E4B7C
:100150007A6823210A439A601B4A1B498E239B001D
:10016000CB588021181C8843011C8E239B00D15042
:10017000C046154BDA6801231340FAD0124B032214
:100180001A67114B01225A670F4B00225A670E4B18
:1001900001225A67C0460C4B5A6F01231340FAD014
:1001A000094B01229A67064B1B689A00074B1A609D
:1001B000064B1A68064B1A60C046BD4602B080BDA9
:1001C00000000010001BB700008004400400001075
:1001D0000800001080B582B000AF2C4A2B498E2356
:1001E0009B00C9582A4B19408E239B00D150274BA6
:1001F00001229A64254B0122DA64244B0022DA643E
:10020000224B0122DA64C046204BDA6C01231340F2
:10021000FAD01E4B1B697B607B685B0A5B027B60CC
:100220001A4B7A6823210A431A61C046174B5A6950
:1002300001231340FAD0154AC0230121D150134A9B
:10024000C4230121D150114AC4230021D1500F4AA7
:10025000C4230121D150C0460C4AC423D2580123E3
:100260001340F9D0094AC8230121D150074A074950
:100270008E239B00CB588021490019438E239B007D
:10028000D150C046BD4602B080BDC046008004408B
:10029000FFFAFFFF80B582B000AFFFF717FF144BE6
:1002A00000221A62124A12498E239B00CB58202149
:1002B000181C8843011C8E239B00D15000237B60B7
:1002C00002E07B6801337B607B68FF2BF9D9FFF785
:1002D0001FFFFFF77FFF064A05498023CB58802187
:1002E000490219438023D150C046BD4602B080BDAB
:1002F0000080044080B582B000AF78600A1CFB1C0F
:100300001A70FB1C1B78002B0BD10E4A0D49802361
:10031000CB587968C94319400B4B19408023D15001
:100320000DE0FB1C1B78012B09D1064A05498023EF
:10033000C9587868044B034019438023D150BD4607
:1003400002B080BD00800440FFBF050080B582B0D0
:1003500000AF124B7B60124B3B6007E03B681A1DFD
:100360003A607A68111D796012681A603A680D4B1C
:100370009A42F3D30C4B3B6004E03B681A1D3A6091
:1003800000221A603A68094B9A42F6D3FFF782FFBF
:10039000FFF796FEBD4602B080BDC04618040000BF
:1003A000000000100C0000100C0000100C000010E9
:1003B00080B500AFFEE7C04680B582B000AF4020F8
:1003C0000121FFF797FFA023DA05A023D905802399
:1003D0009B01CB588021194380239B01D1500023DE
:1003E0007B600CE000233B6002E03B6801333B6034
:1003F0003A68084B9A42F8DD7B6801337B607B6882
:10040000132BEFDDA023DA058C239B018021D15033
:08041000E5E7C0460F270000DC
:0C041800001BB700001BB700001BB70062
:00000001FF
