:100000000C0400108D060000F1060000F10600004F
:10001000F1060000F1060000F106000000000000FB
:10002000000000000000000000000000F1060000D9
:10003000F106000000000000F1060000F1060000DB
:10004000F1060000F1060000F1060000F1060000D4
:10005000F1060000F1060000F1060000F1060000C4
:10006000F1060000F1060000F1060000F1060000B4
:10007000F1060000F1060000F1060000F1060000A4
:10008000F1060000F1060000F1060000F106000094
:10009000F1060000F1060000F1060000F106000084
:1000A000F1060000F1060000F1060000F106000074
:1000B000F1060000F1060000F1060000F106000064
:1000C00080B500AF4020012100F0B4FABD4680BDEC
:1000D00090B583B000AF7860A023DA05A023D905DE
:1000E00080239B01C95801207B68041C9C40231C71
:1000F000194380239B01D150BD4603B090BDC0463B
:1001000090B583B000AF7860A023DA05A023D905AD
:1001100080239B01CB5801207968041C8C40211C52
:10012000C943194080239B01D150BD4603B090BD07
:1001300080B582B000AF7860A023DA0501217B682A
:10014000081C9840031C191C88239B01D150BD46F4
:1001500002B080BD80B582B000AF7860A023DA0520
:1001600001217B68081C9840031C191C8A239B01F1
:10017000D150BD4602B080BD80B582B000AF002333
:100180007B600CE000233B6002E03B6801333B6096
:100190003A68064B9A42F8DD7B6801337B607B68E6
:1001A000C72BEFDDBD4602B080BDC046E7030000AF
:1001B00080B582B000AF78600FE00720FFF7CAFF7C
:1001C000FFF7DAFF0720FFF7B3FFFFF7D5FF0720A0
:1001D000FFF7C0FF7B68013B7B607B68002BECDC9A
:1001E000BD4602B080BDC04680B582B000AF3223AC
:1001F0003B600820FFF79CFF0720FFF7ABFF0023C1
:100200007B600CE00720FFF7A5FFFFF7B5FF072095
:10021000FFF78EFFFFF7B0FF7B6801337B607A68E2
:100220003B689A42EEDBBD4602B080BD80B582B02D
:1002300000AF0720FFF74CFF0820FFF749FF082019
:10024000FFF776FF0720FFF785FFFFF795FF0720F1
:10025000FFF76EFFFFF790FF0720FFF77BFF0820F7
:10026000FFF778FFFFF788FF0720FFF761FFFFF731
:1002700083FF0720FFF76EFF0820FFF759FFFFF706
:100280007BFF0720FFF754FFFFF776FF0720FFF7FC
:1002900061FF0820FFF75EFFFFF76EFF0720FFF703
:1002A00047FFFFF769FF0720FFF754FF0820FFF71C
:1002B00051FFFFF761FF0720FFF73AFFFFF75CFFF1
:1002C0000720FFF747FF0820FFF732FFFFF754FF33
:1002D0000720FFF72DFFFFF74FFF0720FFF73AFF3B
:1002E0000820FFF737FFFFF747FF0720FFF720FF42
:1002F000FFF742FF0720FFF72DFF0820FFF718FF49
:10030000FFF73AFF0720FFF713FFFFF735FF012044
:10031000FFF74EFF0820FFF71DFF0820FFF7F0FE54
:1003200000237B600720FFF715FFFFF725FF07205D
:10033000FFF7FEFEA023DB059B68DBB27B60FFF7C7
:100340001BFF0720FFF706FFFFF716FF0720FFF749
:10035000EFFEA023DB059B68DBB27B60FFF70CFFA1
:100360000720FFF7F7FEFFF707FF0720FFF7E0FE84
:10037000A023DB059B68DBB27B60FFF7FDFE00235B
:10038000181CBD4602B080BD80B500AF0F4B0122E6
:100390005A600F4AE0230121D1500D4AE823012180
:1003A000D1500B4AE4230121D150094AE423002112
:1003B000D150074AE4230121D150C046044AE42326
:1003C000D25801231340F9D0BD4680BD00400440FF
:1003D0000080044080B500AFFFF7D6FFFFF770FE46
:1003E0000820FFF775FE0720FFF772FEFFF7FCFEFF
:1003F000FFF71CFF0720FFF79BFEFFF7BDFE07205E
:10040000FFF7A8FEFFF7B8FEF4E7C04680B58CB052
:1004100000AF0E4BFB623B1C183330221A603B1CB2
:10042000183300225A60FB6A1B68DB685B68391C62
:1004300018313A1D081C111C98473B1D1B68002BE6
:1004400000D0FEE7C046BD460CB080BDF81FFF1FC0
:1004500080B582B000AF2A4B2A4A1A602A4B01228B
:100460001A64294B01225A64274B00225A64264BF6
:1004700001225A64C046244B5A6C01231340FAD01F
:10048000214B9B687B607B685B0A5B027B601E4B39
:100490007A6823210A439A601B4A1B498E239B00DA
:1004A000CB588021181C8843011C8E239B00D150FF
:1004B000C046154BDA6801231340FAD0124B0322D1
:1004C0001A67114B01225A670F4B00225A670E4BD5
:1004D00001225A67C0460C4B5A6F01231340FAD0D1
:1004E000094B01229A67064B1B689A00074B1A605A
:1004F000064B1A68064B1A60C046BD4602B080BD66
:1005000000000010001BB700008004400400001031
:100510000800001080B582B000AF2C4A2B498E2312
:100520009B00C9582A4B19408E239B00D150274B62
:1005300001229A64254B0122DA64244B0022DA64FA
:10054000224B0122DA64C046204BDA6C01231340AF
:10055000FAD01E4B1B697B607B685B0A5B027B6089
:100560001A4B7A6823210A431A61C046174B5A690D
:1005700001231340FAD0154AC0230121D150134A58
:10058000C4230121D150114AC4230021D1500F4A64
:10059000C4230121D150C0460C4AC423D2580123A0
:1005A0001340F9D0094AC8230121D150074A07490D
:1005B0008E239B00CB588021490019438E239B003A
:1005C000D150C046BD4602B080BDC0460080044048
:1005D000FFFAFFFF80B582B000AFFFF717FF144BA3
:1005E00000221A62124A12498E239B00CB58202106
:1005F000181C8843011C8E239B00D15000237B6074
:1006000002E07B6801337B607B68FF2BF9D9FFF741
:100610001FFFFFF77FFF064A05498023CB58802143
:10062000490219438023D150C046BD4602B080BD67
:100630000080044080B582B000AF78600A1CFB1CCB
:100640001A70FB1C1B78002B0BD10E4A0D4980231E
:10065000CB587968C94319400B4B19408023D150BE
:100660000DE0FB1C1B78012B09D1064A05498023AC
:10067000C9587868044B034019438023D150BD46C4
:1006800002B080BD00800440FFBF050080B582B08D
:1006900000AF124B7B60124B3B6007E03B681A1DBA
:1006A0003A607A68111D796012681A603A680D4BD9
:1006B0009A42F3D30C4B3B6004E03B681A1D3A604E
:1006C00000221A603A68094B9A42F6D3FFF782FF7C
:1006D000FFF780FEBD4602B080BDC046F8060000B0
:1006E000000000100C0000100C0000100C000010A6
:0806F00080B500AFFEE7C04633
:0C06F800001BB700001BB700001BB70080
:00000001FF
